:103A000018C0000039FA80059487090212000101EC
:103A100000803209040000000000000012011001C3
:103A2000FF000008D0165307050200000001040340
:103A3000090411241FBECFEFD2E0CDBFDEBF21E0CD
:103A4000A0E0B1E001C01D92AC32B207E1F742C183
:103A5000A82FB92F80E090E041E050EA609530E077
:103A600009C02D9182279795879510F08427952777
:103A7000305EC8F36F5FA8F30895EADF8D939D93DE
:103A80000895CF93CFB7CF93DF93C3951B9BE9F7EF
:103A90001B9B0BC01B9B09C01B9B07C01B9B05C02E
:103AA0001B9B03C01B9B01C08FC06F93C0910E0175
:103AB000DD27CA5EDE4F2F9365E51B9B03C02F9168
:103AC0006F91E6CF0F931F934F9320E040E15F93F8
:103AD00003B1087403FB27F93F9350E03BE039C082
:103AE000187440642F77012F5F5F1EC0406813B1C8
:103AF00018742F7752501FC0406403B12F77087499
:103B0000D1F15F5F00C023C0406213B12F771874FA
:103B100091F15F5F00C025C008741027515012F466
:103B20005D5F0000115027952C3F13B1C8F6187443
:103B30000127015027952C3FC8F64227499303B12E
:103B4000087410274F73115027952C3FA8F64695FF
:103B5000469513B1187479F00127015027952C3F31
:103B600098F66B5A60F3315003B1B0F600C012E022
:103B70001BBB00271DC03B503195C31BD04012E03A
:103B80001BBB0881033C29F10B3419F120910C0176
:103B90001981110F1213EDCF093651F10D3211F0C9
:103BA000013E39F7CAE01BB311FD02C0CA95D9F72F
:103BB000009314013F915F914F911F910F912F91AD
:103BC0006F91CBB3C1FD61CFDF91CF91CFBFCF91CB
:103BD000089520911401222369F3109112011123F9
:103BE00009F534300AF13093120120930D011CC005
:103BF000009112010130B4F40AE530910F0134FD57
:103C000014C000930F01C1E0D1E013C0052710E0FC
:103C100000C0000005B91AC0052710E0221F1DC012
:103C200010E021C04AE502C032ED432FC4E1D0E0EC
:103C300032E014B118642B9A05B114B958E420E8A5
:103C400065E320FF052705B9279517951C3FF0F67A
:103C50006695B8F7B1F720FF052705B927951795A1
:103C60001C3FD0F62795179517FF052700001C3F2E
:103C700005B9B0F629913A9519F7077B1091130110
:103C8000110FC651D04005B911F010930C0112E08C
:103C90001BBB086014B1177B402F477B54E05A953B
:103CA000F1F705B914B945B985CFF201309779F02C
:103CB000E230F10511F480E09DE121E00C01209358
:103CC0005700E8951124CF0102962C0108958CE04D
:103CD00094E9F3CF88E18093600087E080936000EF
:103CE000239A2FEF85EA9EE0215080409040E1F733
:103CF00000C0000023988AE580930F018FEF809326
:103D0000000180916C00806480936C008091680059
:103D1000826080936800712C312C512C412CC5EDB0
:103D2000D4E184E693B1987409F084E6815021F4DB
:103D30001092130110920C01D99B9BC0A2DE82E06D
:103D40008BBBA89522E032120CC0E0E0FAE3E05809
:103D5000F10983E080935700E8953097C1F7512C23
:103D6000412C832D803409F088C0F2013297E1158F
:103D70008AE3F80720F485E080935700E895312C1A
:103D800080911201835087FD2BC090910D019D32CF
:103D900029F5883019F583EC809301018AE5809339
:103DA0000F0180911701807690911801882309F402
:103DB00097C0712C91116EC084E09AE39093110129
:103DC0008093100186E090911E01911105C09091A1
:103DD0001D01981708F4892F809300011092120199
:103DE00080910F0184FF30C0809100018F3F61F10D
:103DF000C82F893008F0C8E0982F9C1B90930001D1
:103E00009091010128E8922790930101882381F085
:103E1000E0911001F0911101A2E0B1E08C2F94919A
:103E20009D9331968150D9F7F0931101E0931001E1
:103E30006C2F82E091E021DECC5FCC3019F08FEF67
:103E400080930001C0930F01C30101963C01803BA8
:103E5000944029F4EDEFF9E3E491EF3FA1F4D99B0D
:103E60005ECF8CE11B9B8CE18150E1F782E08BBB44
:103E700056CF219709F056CF64CF843009F07FCF19
:103E8000CD2B09F07DCF23981092680010926C0022
:103E9000B5CDFFCF913079F44114510411F480E095
:103EA00092CF80911B018078482E50901C0181E1B7
:103EB00087BFE895F4CF933081F4809119019091F8
:103EC0001A01F3DE80911B0190911C01EEDE842D1E
:103ED0008F7729F790E4392E76CF9F73392EDFCF75
:103EE0002091190110920A0191110AC010920B0140
:103EF0002AE031E082E0309311012093100163CF7A
:103F0000953029F4209313012AE031E0F4CF963064
:103F1000F1F480911A01813041F48CE19AE390939D
:103F200011018093100182E14ECF823019F48AE0B2
:103F30009AE3F5CF833009F0B2CF2111B0CF8EE2F2
:103F40009AE3909311018093100184E03CCF983064
:103F500051F0993019F420931501D6CF81E09A30B1
:0E3F600099F280E0D1CF25E131E081E0C4CFBD
:0400000300003A00BF
:00000001FF
