:103A000018C0000039FA80059487090212000101EC
:103A100000803209040000000000000012011001C3
:103A2000FF000008D0165307040200000001040341
:103A3000090411241FBECFEFD2E0CDBFDEBF21E0CD
:103A4000A0E0B1E001C01D92AC32B207E1F766C15F
:103A5000A82FB92F80E090E041E050EA609530E077
:103A600009C02D9182279795879510F08427952777
:103A7000305EC8F36F5FA8F30895EADF8D939D93DE
:103A80000895CF93CFB7CF93DF93C3951B9BE9F7EF
:103A90001B9B0BC01B9B09C01B9B07C01B9B05C02E
:103AA0001B9B03C01B9B01C08FC06F93C0910E0175
:103AB000DD27CA5EDE4F2F9365E51B9B03C02F9168
:103AC0006F91E6CF0F931F934F9320E040E15F93F8
:103AD00003B1087403FB27F93F9350E03BE039C082
:103AE000187440642F77012F5F5F1EC0406813B1C8
:103AF00018742F7752501FC0406403B12F77087499
:103B0000D1F15F5F00C023C0406213B12F771874FA
:103B100091F15F5F00C025C008741027515012F466
:103B20005D5F0000115027952C3F13B1C8F6187443
:103B30000127015027952C3FC8F64227499303B12E
:103B4000087410274F73115027952C3FA8F64695FF
:103B5000469513B1187479F00127015027952C3F31
:103B600098F66B5A60F3315003B1B0F600C012E022
:103B70001BBB00271DC03B503195C31BD04012E03A
:103B80001BBB0881033C29F10B3419F120910C0176
:103B90001981110F1213EDCF093651F10D3211F0C9
:103BA000013E39F7CAE01BB311FD02C0CA95D9F72F
:103BB000009314013F915F914F911F910F912F91AD
:103BC0006F91CBB3C1FD61CFDF91CF91CFBFCF91CB
:103BD000089520911401222369F3109112011123F9
:103BE00009F534300AF13093120120930D011CC005
:103BF000009112010130B4F40AE530910F0134FD57
:103C000014C000930F01C1E0D1E013C0052710E0FC
:103C100000C0000005B91AC0052710E0221F1DC012
:103C200010E021C04AE502C032ED432FC4E1D0E0EC
:103C300032E014B118642B9A05B114B958E420E8A5
:103C400065E320FF052705B9279517951C3FF0F67A
:103C50006695B8F7B1F720FF052705B927951795A1
:103C60001C3FD0F62795179517FF052700001C3F2E
:103C700005B9B0F629913A9519F7077B1091130110
:103C8000110FC651D04005B911F010930C0112E08C
:103C90001BBB086014B1177B402F477B54E05A953B
:103CA000F1F705B914B945B985CFF201309731F074
:103CB000E230F10529F480E09DE102C08CE094E956
:103CC00021E00C0120935700E8951124CF010296C2
:103CD0002C01089587EF84BFE0E6F0E088E180835F
:103CE00087E08083239A2FEF85EA9EE02150804071
:103CF0009040E1F700C0000023988AE580930F010F
:103D00008FEF80930001ECE6F0E080818064808397
:103D1000E8E6F0E08081826080830895DBDF219A0D
:103D2000712C312C412C512CC5EDD4E184E693B19A
:103D3000987409F084E6815021F4109213011092D6
:103D40000C01D99B05C09DDE82E08BBB712C02C0AB
:103D5000219769F7A895832D823069F4E0E0FAE3B2
:103D6000E058F10983E080935700E8953097C1F758
:103D7000412C512C12C0803459F4F2013297E115D4
:103D80002AE3F20750F485E080935700E89505C0D8
:103D9000843019F4CD2B11F4EDC0312C8091120137
:103DA000835087FD99C090910D019D3209F092C01A
:103DB000883009F08FC083EC809301018AE58093FD
:103DC0000F0180911701807690911801882379F175
:103DD000911108C084E09AE390931101809310013F
:103DE00086E06DC0913069F441145104F1F0809186
:103DF0001B018078482E50901C0181E187BFE89517
:103E000014C0933081F48091190190911A014DDF13
:103E100080911B0190911C0148DF842D8F7729F43C
:103E200090E4392E4CC09F73392E80E048C08091B9
:103E3000190110920A01911106C010920B012AE09B
:103E400031E082E038C0953019F48093130125C029
:103E50009630E9F490911A01913019F48CE19AE3CB
:103E600004C0923041F48AE09AE390931101809368
:103E7000100182E124C09330C1F68111D6CF8EE2C9
:103E80009AE3909311018093100184E018C0983058
:103E900079F0993031F4809315012AE031E080E027
:103EA0000AC081E09A3009F080E02AE031E003C0E6
:103EB00025E131E081E030931101209310019091D0
:103EC0001E01911105C090911D01981708F4892FCA
:103ED000809300011092120180910F0184FF2FC086
:103EE000809100018F3F59F1C82F893008F0C8E058
:103EF0008C1B809300019091010188E889278093B1
:103F00000101CC2381F0E0911001F0911101A2E0B8
:103F1000B1E08C2F94919D9331968150D9F7F09315
:103F20001101E09310016C2F82E091E0A6DDCC5FDF
:103F3000CC3019F08FEF80930001C0930F01C301C3
:103F400001963C01803B944029F4EDEFF9E3E491C4
:103F5000EF3F81F4862D8C7411F0299801C0299AC5
:103F6000D99BE2CE8CE11B9B8CE18150E1F782E092
:103F70008BBBDACE21982998ADDE109268001092A2
:063F80006C003CCDFFCFF8
:0400000300003A00BF
:00000001FF
