:101A400017C01A3A4005930B0902120001010080E9
:101A50003209040000000000000012011001FF0024
:101A60000008D01653070502000000010403090412
:101A7000112420E0A0E6B0E001C01D92AC38B2070E
:101A8000E1F75BC1A82FB92F80E090E041E050EA78
:101A9000609530E009C02D9182279795879510F0C9
:101AA00084279527305EC8F36F5FA8F30895EADFB7
:101AB0008D939D930895CF93CFB7CF93DF93C39525
:101AC000B39BE9F7B39B0BC0B39B09C0B39B07C0A3
:101AD000B39B05C0B39B03C0B39B01C08FC06F9382
:101AE000C0916E00DD27CA58DF4F2F9365E5B39B89
:101AF00003C02F916F91E6CF0F931F934F9320E078
:101B000040E15F9306B3087103FB27F93F9350E070
:101B10003BE039C0187140642F77012F5F5F1EC012
:101B2000406816B318712F7752501FC0406406B337
:101B30002F770871D1F15F5F00C023C0406216B3F8
:101B40002F77187191F15F5F00C025C008711027D1
:101B5000515012F45D5F0000115027952C3F16B3D1
:101B6000C8F618710127015027952C3FC8F6422767
:101B7000499306B3087110274F73115027952C3FD6
:101B8000A8F64695469516B3187179F001270150CD
:101B900027952C3F98F66B5A60F3315006B3B0F698
:101BA00000C010E21ABF00271DC03B503195C31B77
:101BB000D04010E21ABF0881033C29F10B3419F11F
:101BC00020916C001981110F1213EDCF093651F1DC
:101BD0000D3211F0013E39F7CAE01AB715FD02C007
:101BE000CA95D9F7009374003F915F914F911F916F
:101BF0000F912F916F91CAB7C5FD61CFDF91CF9142
:101C0000CFBFCF91089520917400222369F31091E2
:101C10007200112309F534300AF1309372002093D9
:101C20006D001CC0009172000130B4F40AE53091DF
:101C30006F0034FD14C000936F00C1E6D0E013C004
:101C4000052710E000C0000008BB1AC0052710E0FF
:101C5000221F1DC010E021C04AE502C032ED432F13
:101C6000C4E1D0E032E017B31861C39A08B317BBE0
:101C700058E120E865E320FF052708BB2795179565
:101C80001C3FF0F66695B8F7B1F720FF052708BBB3
:101C9000279517951C3FD0F62795179517FF052711
:101CA00000001C3F08BBB0F629913A9519F7077E52
:101CB00010917300110FC651D04008BB11F0109362
:101CC0006C0010E21ABF086017B3177E402F477EE2
:101CD00054E05A95F1F708BB17BB48BB85CF2FEFEF
:101CE000B0E8A0E04AE0B1BF00008DE79CE0B39906
:101CF000FECFB39BFECF0197B399FDCF97FF03C0F3
:101D0000BA1B819501C0BA0FA69539F4A0E428F456
:101D1000281710F031B7282FA1E0415021F731BF2B
:101D200000000895F20121E00C0120935700E8958E
:101D30001124CF0102962C01089588E181BD87E02E
:101D400081BDBB9A2FEF85EA9EE0215080409040F4
:101D5000E1F700C00000BB988AE580936F008FEF29
:101D600080936000AC9A8BB780628BBF712C312C52
:101D7000512C412CC5EDD4E114E686B3887109F0ED
:101D800014E6115029F41092730010926C00A7DF32
:101D90000AB605FE9CC08FDE80E28ABFA89522E0CD
:101DA00032120CC0E0E4FAE1E054F10983E08093E0
:101DB0005700E8953097C1F7512C412C832D803482
:101DC00009F089C0F2013297E0348AE1F80720F483
:101DD00085E080935700E895312C80917200835004
:101DE00087FD2BC090916D009D3229F5883019F543
:101DF00083EC809361008AE580936F008091770087
:101E0000807690917800882309F496C0712C911106
:101E10006DC082E49AE1909371008093700086E037
:101E200090917E00911105C090917D00981708F463
:101E3000892F809360001092720080916F0084FF60
:101E400030C0809160008F3F61F1C82F893008F069
:101E5000C8E0982F9C1B909360009091610028E847
:101E6000922790936100882381F0E0917000F091B7
:101E70007100A2E6B0E08C2F94919D933196815031
:101E8000D9F7F0937100E09370006C2F82E690E038
:101E90000EDECC5FCC3019F08FEF80936000C093E2
:101EA0006F00C30101963C01803B944029F4EDE3AF
:101EB000FAE1E491EF3FA9F40AB605FE5BCF8CE1AD
:101EC000B39B8CE18150E1F780E28ABF53CF219729
:101ED00009F053CF63CF843009F07ECFCD2B09F0CA
:101EE0007CCFBB981BBE15BAA9CDFFCF913079F43A
:101EF0004114510411F480E093CF80917B00807CE9
:101F0000482E50907C0081E187BFE895F4CF933054
:101F100081F48091790090917A0004DF80917B00B8
:101F200090917C00FFDE842D8F7329F790E4392E89
:101F300077CF9F73392EDFCF2091790010926A00FE
:101F400091110AC010926B002AE630E082E03093D3
:101F500071002093700064CF953029F420937300B2
:101F60002AE630E0F4CF9630F1F480917A008130A7
:101F700041F48AE59AE1909371008093700082E1C8
:101F80004FCF823019F488E49AE1F5CF833009F01D
:101F9000B2CF2111B0CF8CE69AE19093710080937B
:101FA000700084E03DCF983051F0993019F42093BF
:101FB0007500D6CF81E09A3099F280E0D1CF25E745
:061FC00030E081E0C4CF17
:0400000300001A409F
:00000001FF
