:1000000003C003C003C003C003C003C003C003C0D8
:100080000EC025C024C023C022C021C020C01FC074
:100090001EC01DC01CC01BC01AC019C018C0000063
:1000A0000000000000000000000000000000000050
:1000B000000000000000000000000000000011240B
:1000C0001FBECFE5D2E0DEBFCDBF15D42DC4D8CF43
:1000D000009731F0EDE1F0E13197F1F70197F8CFBA
:1000E0000895807C20E030E0FC01E20FF31F459191
:1000F0005491F901EE7FE60FF71F518340832E5F85
:100100003F4F2034310581F70895FC01E07C93E0F6
:1001100090935700E89507B600FCFDCF0895CF9364
:10012000DF939B01205C3F4FDB01FC01E61BF70BDB
:10013000EA0FFB1FCD91DD9141E00E014093570086
:10014000E8951124A217B30781F725E0FC0120935D
:100150005700E89507B600FCFDCFDF91CF910895D9
:10016000CF93DF93CDB7DEB7C054D1090FB6F89463
:10017000DEBF0FBECDBFBE016F5F7F4F80E090E05E
:10018000B0DFFE013196CE018F5B9F4F2FEF3FEF27
:1001900021933193E817F907C9F780E090E0B5DFC4
:1001A000BE016F5F7F4F80E090E0B9DFC05CDF4F42
:1001B0000FB6F894DEBF0FBECDBFDF91CF9108958B
:1001C000EF92FF920F931F93CF93DF93CDB7DEB7DC
:1001D000C054D1090FB6F894DEBF0FBECDBF00E00A
:1001E00010E045E00E3F1407CCF520E030E0F901C7
:1001F000E00FF11FE850FD4FC9019595879548E044
:10020000E63FF4076CF445915491880F991FE1E0A3
:10021000F0E0EC0FFD1FE80FF91F518340830CC085
:10022000880F991FE1E0F0E0EC0FFD1FE80FF91FC8
:100230008FEF9FEF918380832E5F3F4F20343105F6
:10024000B1F6780186EEF81AC7015FDFBE016F5F75
:100250007F4FC70164DF005C1F4FC3CFC05CDF4F1F
:100260000FB6F894DEBF0FBECDBFDF91CF911F91C7
:100270000F91FF90EF9008950F931F93CF93DF930B
:10028000CDB7DEB7C054D1090FB6F894DEBF0FBEAC
:10029000CDBFFE013196CE018F5B9F4F8F012FEFB7
:1002A0003CEC21933193E817F907C9F780E090E01F
:1002B0002CDFB80180E090E032DFC05CDF4F0FB68A
:1002C000F894DEBF0FBECDBFDF91CF911F910F918C
:1002D0000895CF93B99AC198CAEF81E090E0F8DE13
:1002E000C19A81E090E0F4DEC198C150B1F7CF919E
:1002F0000895E0E0F0E0099415C019FA4005930B69
:10030000090212000101008032090400000000000F
:10031000000012011001FF000008D016530705026B
:10032000000000011124CFE5D2E0CDBFDEBF20E008
:10033000A0E6B0E001C01D92AC38B207E1F799C168
:10034000DC0180E090E041E050EA609530E009C0D7
:100350002D9182279795879510F084279527305EF9
:10036000C8F36F5FA8F38D939D930895CF93CFB794
:10037000CF93C395B39BE9F7B39B0BC0B39B09C065
:10038000B39B07C0B39B05C0B39B03C0B39B01C025
:10039000D1C00F920F90C0916E00DD27CA58DF4F79
:1003A000012EB39B03C00F920F90E6CF0F930F91D6
:1003B0000F930F912FEF4F6F06B303FB20F90F93AD
:1003C0000F9150E03BE065C016B30126502953FD64
:1003D000C89556B3012703FB25F92F7306B3B1F077
:1003E0005027102713FB26F906B22230F0F000C088
:1003F00016B3012703FB27F90126502906B2243042
:10040000E8F54F77206816B30000F6CF50274F7DF0
:10041000206206B2102F000000C006B3002650294B
:10042000102713FB26F906B2E2CF4F7B06B32064F8
:1004300000C0DACF01265029187106B269F14E7F4B
:100440002160012F16B328C0002650294D7F06B227
:100450002260102F29C0012650294B7F06B224604C
:10046000012F2DC016B301265029477F28600000B8
:1004700006B22EC04F7E06B3206130C0422706B3BD
:10048000499300265029102706B24FEF13FB20F99D
:10049000297F16B379F2187159F10126502906B255
:1004A000012703FB21F9237F06B371F200265029AF
:1004B0003150D0F006B2102713FB22F9277E16B375
:1004C00051F201265029012703FB06B223F92F7CA4
:1004D00049F2000006B3102713FB24F90026502927
:1004E00006B22F7939F270CF10E21ABF00271DC073
:1004F0003B503195C31BD04010E21ABF0881033C2A
:10050000E9F00B34D9F020916C001981110F12130E
:10051000EDCF093611F10D3211F0013E39F7CAE085
:100520001AB715FD02C0CA95D9F700937400CAB76F
:10053000C5FD1FCFCF91CFBFCF91089520917400FB
:100540002223A9F3109172001123F1F43430F2F058
:100550003093720020936D0019C000917200013039
:100560009CF40AE530916F0034FD11C000936F00D8
:10057000C1E6D0E010C0052710E000C021C005276B
:1005800010E0C89508BB14C03AE501C032ED032E57
:10059000C0E0D0E032E017B31861C39A08B317BBCC
:1005A00058E120E84FEF20FF052708BB2795179556
:1005B0001C3F28F700004552B0F720FF052727957C
:1005C00008BB17951C3FB8F629913A9561F7077E4D
:1005D00010917300110F08BBC250D04011F010935E
:1005E0006C0010E21ABF086017B3177E402F477ED9
:1005F00054E05A95F1F708BB17BB48BB98CF2FEFD3
:10060000B0E8A0E04AE0B1BF000081EE9CE0B39901
:10061000FECFB39BFECF0197B399FDCF97FF03C0E9
:10062000BA1B819501C0BA0FA69539F4A0E428F44D
:10063000281710F031B7282FA1E0415021F731BF22
:1006400000000895F201309741F02AEF421629E1A7
:10065000520629F481B790E002C08FEF9CEC21E0B4
:100660000C0120935700E8951124CF0102962C012C
:100670000895EAEFF9E1E491EF3F11F0E1BF0000E6
:1006800088E181BD87E081BDBB9A88EB9BE0ECE906
:10069000F1E03197F1F70197D1F7BB988AE58093A4
:1006A0006F008FEF80936000AC9A8BB780628BBF36
:1006B0002CE5622E23E0722E312C412C512CCCE7FC
:1006C000D5E114E686B3887109F014E6115031F4CF
:1006D0001092730010926C0092DF712C0AB605FE26
:1006E00004C044DE80E28ABF02C0219759F7A89572
:1006F000832D823069F4E0E0FAE1E054F10983E00F
:1007000080935700E8953097C1F7412C512C12C0C7
:10071000803459F4F2013297E1152AE1F20750F4DE
:1007200085E080935700E89505C0843019F4CD2BFF
:1007300011F4DDC0312C80917200835087FD8EC092
:1007400090916D009D3209F087C0883009F084C017
:1007500083EC809361008AE580936F00809177003D
:10076000807690917800882381F1712C911108C0D6
:1007700082E09AE1909371008093700086E061C0FE
:10078000913069F441145104F1F080917B00807C38
:10079000482E50907C0081E187BFE89514C09330CB
:1007A00081F48091790090917A004CDF80917B00F8
:1007B00090917C0047DF842D8F7329F490E4392ECB
:1007C00040C09F73392E80E03CC080917900109228
:1007D0006A00911106C010926B002AE630E082E0B8
:1007E0002CC0953019F48093730019C0963089F4A9
:1007F00080917A00813019F48AE19AE104C0823054
:1008000011F788E09AE1909371008093700082E183
:1008100018C0983079F0993031F4809375002AE649
:1008200030E080E00AC081E09A3009F080E02AE6FA
:1008300030E003C025E730E081E030937100209381
:10084000700090917E00911105C090917D009817E5
:1008500008F4892F809360001092720080916F00DD
:1008600084FF2FC0809160008F3F59F1C82F8930DD
:1008700008F0C8E08C1B809360009091610088E8CC
:10088000892780936100CC2381F0E0917000F09182
:100890007100A2E6B0E08C2F94919D933196815027
:1008A000D9F7F0937100E09370006C2F82E690E02E
:1008B00047DDCC5FCC3019F08FEF80936000C093A0
:1008C0006F00C30101963C01883E934029F4EDEF8F
:1008D000F9E1E491EF3F59F40AB605FEF0CE8DE15F
:1008E000B39B8DE18150E1F780E28ABFE8CE17BA71
:1008F0001BBE15BAFFCC88B318BA87B38FEF87BB7E
:100900008AEF90E0E5DB87B317BA8AEF90E0E0DB8F
:10091000F89426DC55DCB0DCDCDC8DEF99E1F5DB0E
:0C092000E8DC80E090E00895F894FFCF40
:040000030000008079
:00000001FF
