:1000000003C003C003C003C003C003C003C003C0D8
:100080001DC034C033C032C031C030C02FC02EC0FC
:100090002DC02CC02BC02AC029C028C027C026C014
:1000A00025C024C023C022C021C020C01FC01EC044
:1000B0001DC01CC01BC01AC019C018C00000000021
:1000C0000000000000000000000000000000000030
:1000D00000000000000000000000000011241FBE0E
:1000E000CFEFD2E0DEBFCDBF3AD44FC4C9CF009727
:1000F00031F0E8EBFBE03197F1F70197F8CF089585
:10010000807F20E030E0FC01E20FF31F4591549125
:10011000F901EE7FE60FF71F518340832E5F3F4FBB
:100120002031310581F70895FC01E07F93E0909341
:100130005700E89507B600FCFDCF0895CF93DF93F5
:100140009B01205F3F4FDB01FC01E61BF70BEA0F31
:10015000FB1FCD91DD9141E00E0140935700E895E2
:100160001124A217B30781F725E0FC012093570063
:10017000E89507B600FCFDCFDF91CF910895CF93AE
:10018000DF93CDB7DEB760970FB6F894DEBF0FBE32
:10019000CDBFBE016F5F7F4F80E090E0B1DFFE0119
:1001A0003196CE0141962FEF3FEF21933193E8171F
:1001B000F907C9F780E090E0B7DFBE016F5F7F4FBE
:1001C00080E090E0BBDF60960FB6F894DEBF0FBE14
:1001D000CDBFDF91CF910895EF92FF920F931F93C0
:1001E000CF93DF93CDB7DEB760970FB6F894DEBF3D
:1001F0000FBECDBF00E010E046E00E3414070CF057
:100200003BC020E030E0F901E00FF11FE05FFC4F60
:10021000C9019595879549E0EE35F4076CF4459151
:100220005491880F991FE1E0F0E0EC0FFD1FE80FFB
:10023000F91F518340830CC0880F991FE1E0F0E063
:10024000EC0FFD1FE80FF91F8FEF9FEF9183808365
:100250002E5F3F4F20313105B1F6780180E8E81A72
:1002600086EEF80AC70160DFBE016F5F7F4FC701EE
:1002700065DF005F1F4FC0CF60960FB6F894DEBFFA
:100280000FBECDBFDF91CF911F910F91FF90EF90E7
:1002900008950F931F93CF93DF93CDB7DEB7609789
:1002A0000FB6F894DEBF0FBECDBFFE013196CE0172
:1002B00041968F012FEB3CEC21933193E817F9071E
:1002C000C9F780E090E030DFB80180E090E036DFF1
:1002D00060960FB6F894DEBF0FBECDBFDF91CF9111
:1002E0001F910F910895CF9387B3836087BBC19807
:1002F000CAEF81E090E0FBDEC19A81E090E0F7DE9A
:10030000C198C150B1F7CF910895E0E0F0E00994B1
:1003100017C0197A10859315090212000101008097
:100320003209040000000000000012011001FF006B
:100330000008D0165307040200000001040309045A
:1003400011241FBECFEFD2E0CDBFDEBF21E0A0E081
:10035000B1E001C01D92AC32B207E1F7ADC1DC01E2
:100360008FEF9FEF332715C02D912827722F2295ED
:100370002727822F26952695282723952270321726
:1003800077952795822F8927972F769527959727F9
:100390008227615048F7809590950895E0DF8D930E
:1003A0009D930895CF93CFB7CF93C395B19BE9F7B2
:1003B000B19B09C0B19B07C0B19B05C0B19B03C0F5
:1003C000B19B01C0A7C0DF93C0910E01DD27CA5EBB
:1003D000DE4FB19B02C0DF91EBCF2F930F931F93A2
:1003E00006B32FEF01FB20F94F933F9316B34FEF66
:1003F000012701FB21F93BE031C04E7F012F16B3ED
:10040000216028C0102F4D7F2260000006B329C054
:100410004B7F2460012F000016B32BC016B3477F1B
:1004200028602AC04F7E06B320612CC04F7D16B3D2
:1004300020622FC04F7B06B3206432C0422706B330
:1004400049934FEF0000102711FB20F916B31370EA
:10045000C9F1297F91F2012701FB21F906B3237F1E
:1004600089F2315058F1102711FB22F916B3277E7B
:1004700079F2012701FB23F92F7C81F206B31027C3
:1004800011FB24F92F7971F200C016B3012701FB8B
:1004900025F92F7359F200C006B3102711FB26F976
:1004A000223040F200C016B3012701FB27F92430A7
:1004B00028F64F77206816B30000F9CF10E21ABF74
:1004C00000271DC03B503195C31BD04010E21ABF1E
:1004D0000881033C19F10B3409F120910C011981B9
:1004E000110F1213EDCF093641F10D3211F0013E1B
:1004F00039F7CAE01AB715FD02C0CA95D9F70093BB
:1005000014013F914F911F910F912F91DF91CAB725
:10051000C5FD4BCFCF91CFBFCF910895209114014E
:10052000222379F3109112011123E1F43430E2F027
:100530003093120120930D0117C000911201013078
:100540008CF40AE530910F0134FD10C000930F01C7
:10055000C1E0D1E00FC02795A8F45150A9F4220FB3
:100560000000F9CF4AE503C042ED01C0432FC4E1CA
:10057000D0E032E017B31360C19A17BB08B320E490
:1005800013E05F93012756E008BB279520F45150F4
:1005900021F4220FF9CF012756E000003B5A08BB97
:1005A000D0F2279528F4515029F4220F0000F9CFFA
:1005B000012756E0279508BB20F4515021F4220F63
:1005C000F9CF012756E02991332308BB21F60C7F90
:1005D00010911301110FC651D04008BB11F01093B8
:1005E0000C0110E21ABF026017B31C7F402F4C7F32
:1005F0005F9100C000C008BB17BB48BB82CF2FEF84
:10060000B0E8A0E04AE0B093740000008EE599E005
:10061000B199FECFB19BFECF0197B199FDCF97FF66
:1006200003C0BA1B819501C0BA0FA69541F4A0E49E
:1006300030F4281718F030917400282FA1E04150B1
:1006400011F73093740000000895F201309749F0DB
:100650002AE7421629E1520631F48091740090E0B5
:1006600002C08FEB9CEC21E00C0120935700E89531
:100670001124CF0102962C01089587EF84BF88EDE5
:100680008093710087E081BDB99A2FE78CEF9AE0E3
:10069000215080409040E1F700C00000B9988AE501
:1006A00080930F018FEF8093000180B5816080BD42
:1006B0008BB780628BBF089580917400282EEAE783
:1006C000F9E1E491EF3F19F0E0937400000004B603
:1006D00001FC06C0EDE7F9E1E491EF3F09F03AC112
:1006E000CCDFC298712C312C412C512CC0EADFE0B8
:1006F00014E686B3837009F014E6115029F41092C1
:10070000130110920C017BDF0AB605FE05C04ADE1C
:1007100080E28ABF712C02C0219759F7A895909169
:10072000740020927400832D823069F4E0E8F9E1CE
:10073000E054F10983E080935700E8953097C1F7C2
:10074000412C512C0CC0803451F4F2013297E03826
:1007500029E1F20720F485E080935700E895909313
:10076000740084E0381203C0CD2B11F4EFC0312C9B
:1007700080911201835087FD9AC090910D019D32A6
:1007800009F093C0883009F090C083EC8093010198
:100790008AE580930F01809117018076909118016E
:1007A000882381F1712C911108C082E899E190931E
:1007B00011018093100186E06DC0913069F44114FD
:1007C0005104F1F080911B01807F482E50901C0154
:1007D00081E187BFE89514C0933081F480911901BD
:1007E00090911A0132DF80911B0190911C012DDF45
:1007F000842D8F7029F490E4392E4CC09F73392ECC
:1008000080E048C08091190110920A01911106C040
:1008100010920B012AE031E082E038C0953019F4E3
:100820008093130125C09630E9F490911A0191301C
:1008300019F48AE999E104C0923041F488E899E119
:10084000909311018093100182E124C09330C1F68E
:100850008111D6CF8CEA99E1909311018093100118
:1008600084E018C0983079F0993031F48093150104
:100870002AE031E080E00AC081E09A3009F080E0AF
:100880002AE031E003C025E131E081E0309311013D
:100890002093100190911E01911105C090911D01AE
:1008A000981708F4892F809300011092120180910B
:1008B0000F0184FF2FC0809100018F3F59F1C82F95
:1008C000893008F0C8E08C1B8093000190910101F1
:1008D00088E8892780930101CC2381F0E091100101
:1008E000F0911101A2E0B1E08C2F94919D9331968B
:1008F0008150D9F7F0931101E09310016C2F82E041
:1009000091E04CDDCC5FCC3019F08FEF809300018B
:10091000C0930F01C30101963C01803B944029F430
:10092000EDE7F9E1E491EF3F89F4862D8C7411F045
:10093000BA9801C0BA9A0AB605FED8CE85E1B19B35
:1009400085E18150E1F780E28ABFD0CEBA9895DE8A
:100950001BBE10BC209274000000D8CCFFCF88B31F
:1009600018BA87B38FEF87BB8AEF90E0C0DB87B3FD
:1009700017BA8AEF90E0BBDBF89401DC2DDC89DC50
:0E098000B2DCC3DC80E090E00895F894FFCF75
:040000030000008079
:00000001FF
