:1000000003C003C003C003C003C003C003C003C0D8
:1000800010C027C026C025C024C023C022C021C064
:1000900020C01FC01EC01DC01CC01BC01AC019C07C
:1000A00018C0000000000000000000000000000078
:1000B0000000000000000000000000000000000040
:1000C000000011241FBECFE5D2E0DEBFCDBF13D4A8
:1000D00028C4D6CF009709F40895E8EBFBE03197E8
:1000E000F1F70197F7CF807C9B01205C3F4FDB014C
:1000F000FC01E61BF70BEA0FFB1F459154914D9352
:100100005D93A217B307A1F70895FC01E07C93E08B
:1001100090935700E89507B600FCFDCF0895CF9364
:10012000DF939B01205C3F4FDB01FC01E61BF70BDB
:10013000EA0FFB1FCD91DD9141E00E014093570086
:10014000E8951124A217B30781F725E0FC0120935D
:100150005700E89507B600FCFDCFDF91CF910895D9
:10016000CF93DF93CDB7DEB7C054D1090FB6F89463
:10017000DEBF0FBECDBFBE016F5F7F4F90E080E05E
:10018000B2DFFE013196CE018F5B9F4F2FEF3FEF25
:1001900021933193E817F907C9F790E080E0B5DFC4
:1001A000BE016F5F7F4F90E080E0B9DFC05CDF4F42
:1001B0000FB6F894DEBF0FBECDBFDF91CF9108958B
:1001C000EF92FF920F931F93CF93DF93CDB7DEB7DC
:1001D000C054D1090FB6F894DEBF0FBECDBF10E0FA
:1001E00000E046E00230140774F0C05CDF4F0FB649
:1001F000F894DEBF0FBECDBFDF91CF911F910F915D
:10020000FF90EF90089530E020E0F801EC50FD4FB2
:10021000E20FF31FC9018E7F48E0E63FF407FCF4CC
:100220004591549161E070E06C0F7D1F860F971F20
:10023000FC01518340832E5F3F4F2034310529F765
:100240007801F0E8EF1AF6EEFF0AC7015EDFBE01A3
:100250006F5F7F4FC70163DF005C1F4FC2CF41E07C
:1002600050E04C0F5D1F840F951F4FEF5FEFE0CF05
:100270000F931F93CF93DF93CDB7DEB7C054D1094F
:100280000FB6F894DEBF0FBECDBFFE013196CE0192
:100290008F5B9F4F8F012FEB3CEC21933193E8173D
:1002A000F907C9F790E080E030DFB80190E080E026
:1002B00036DFC05CDF4F0FB6F894DEBF0FBECDBF98
:1002C000DF91CF911F910F910895CF9387B38360F2
:1002D00087BBC198CAEF81E090E0FCDEC19A81E063
:1002E00090E0F8DEC198C150B1F7CF910895F0E0E9
:1002F000E0E0099417C0197A4005930C0902120036
:100300000101008032090400000000000000120119
:100310001001FF000008D01653070502000000017D
:100320000403090411241FBECFE5D2E0CDBFDEBF18
:1003300020E0A0E6B0E001C01D92AC38B207E1F7C2
:10034000A0C1DC018FEF9FEF332715C02D91282727
:10035000722F22952727822F2695269528272395C9
:100360002270321777952795822F8927972F7695B8
:10037000279597278227615048F780959095089593
:10038000E0DF8D939D930895CF93CFB7CF93C3951F
:10039000B09BE9F7B09B09C0B09B07C0B09B05C0FC
:1003A000B09B03C0B09B01C0A7C0DF93C0916E009B
:1003B000DD27CA58DF4FB09B02C0DF91EBCF2F93F0
:1003C0000F931F9306B32FEF00FB20F94F933F933A
:1003D00016B34FEF012700FB21F93BE031C04E7F00
:1003E000012F16B3216028C0102F4D7F226000001E
:1003F00006B329C04B7F2460012F000016B32BC029
:1004000016B3477F28602AC04F7E06B320612CC0F8
:100410004F7D16B320622FC04F7B06B3206432C0DD
:10042000422706B349934FEF0000102710FB20F935
:1004300016B31370C9F1297F91F2012700FB21F94E
:1004400006B3237F89F2315058F1102710FB22F9AF
:1004500016B3277E79F2012700FB23F92F7C81F266
:1004600006B3102710FB24F92F7971F200C016B3E0
:10047000012700FB25F92F7359F200C006B310279E
:1004800010FB26F9223040F200C016B3012700FB12
:1004900027F9243028F64F77206816B30000F9CFEB
:1004A00010E21ABF00271DC03B503195C31BD0403E
:1004B00010E21ABF0881033C19F10B3409F12091B5
:1004C0006C001981110F1213EDCF093641F10D3275
:1004D00011F0013E39F7CAE01AB715FD02C0CA95FE
:1004E000D9F7009374003F914F911F910F912F9175
:1004F000DF91CAB7C5FD4BCFCF91CFBFCF91089544
:1005000020917400222379F3109172001123E1F4F9
:100510003430E2F03093720020936D0017C00091E8
:10052000720001308CF40AE530916F0034FD10C088
:1005300000936F00C1E6D0E00FC02795A8F451509A
:10054000A9F4220F0000F9CF4AE503C042ED01C033
:10055000432FC4E1D0E032E017B31360C09A17BB59
:1005600008B320E413E05F93012756E008BB27950A
:1005700020F4515021F4220FF9CF012756E000005A
:100580003B5A08BBD0F2279528F4515029F4220F8A
:100590000000F9CF012756E0279508BB20F4515001
:1005A00021F4220FF9CF012756E02991332308BB0C
:1005B00021F60C7F10917300110FC651D04008BB7B
:1005C00011F010936C0010E21ABF016017B31C7F8A
:1005D000402F4C7F5F9100C000C008BB17BB48BBD9
:1005E00082CF2FEFB0E8A0E04AE0B1BF00008EE577
:1005F00099E0B099FECFB09BFECF0197B099FDCFA7
:1006000097FF03C0BA1B819501C0BA0FA69539F4B4
:10061000A0E428F4281710F031B7282FA1E04150AA
:1006200021F731BF00000895F201309711F48FEBEC
:100630009CEC21E00C0120935700E8951124CF0198
:1006400002962C01089587EF84BF88E181BD87E081
:1006500081BDB89A2FE78CEF9AE0215080409040FE
:10066000E1F700C00000B8988AE580936F008FEF33
:100670008093600080B5826080BD8BB780628BBF45
:10068000089521B6E0DFC298712C312C512C412CF9
:10069000C0EADFE014E686B3837009F014E6115077
:1006A00029F41092730010926C009BDF0AB605FECD
:1006B000A1C06ADE80E28ABFA89522E032120CC097
:1006C000E0E8F9E1E054F10983E080935700E89510
:1006D0003097C1F7512C412C832D803409F08EC006
:1006E000F2013297E03889E1F80720F485E0809341
:1006F0005700E895312C80917200835087FD2BC004
:1007000090916D009D3229F5883019F583EC809326
:1007100061008AE580936F008091770080769091E8
:100720007800882309F49EC0712C911175C082E86D
:1007300099E1909371008093700086E090917E0023
:10074000911105C090917D00981708F4892F80932E
:1007500060001092720080916F0084FF30C0809121
:1007600060008F3F61F1C82F893008F0C8E0982FF2
:100770009C1B909360009091610028E892279093D1
:100780006100882381F0E0917000F0917100A2E691
:10079000B0E08C2F94919D9331968150D9F7F093CE
:1007A0007100E09370006C2F82E690E0E9DDCC5F91
:1007B000CC3019F08FEF80936000C0936F00C301BD
:1007C00001963C01803B24E0920729F4EDE7F9E132
:1007D000E491EF3FC9F48C7409F48BC0BA980AB65F
:1007E00005FE56CF85E1B09B85E18150E1F780E2BF
:1007F0008ABF4ECF219709F04ECF5ECF843009F0EB
:1008000079CFCD2B09F077CFBA981DDF1BBE10BC76
:1008100021BE00006DCDFFCF913079F44114510419
:1008200011F480E08BCF80917B00807C482E50902B
:100830007C0081E187BFE895F4CF933081F480910B
:10084000790090917A00F0DE80917B0090917C009D
:10085000EBDE842D8F7329F790E4392E6FCF9F73D1
:10086000392EDFCF2091790010926A0091110AC0D1
:1008700010926B002AE630E082E030937100209302
:1008800070005CCF953029F4209373002AE630E0A5
:10089000F4CF9630F1F480917A00813041F48AE906
:1008A00099E1909371008093700082E147CF82308C
:1008B00019F488E899E1F5CF833009F0B2CF21111E
:1008C000B0CF8CEA99E1909371008093700084E03E
:1008D00035CF983051F0993019F420937500D6CF68
:1008E00081E09A3099F280E0D1CF25E730E081E0D5
:1008F000C4CFBA9A74CF88B318BA87B38FEF87BBC7
:100900008AEF90E0E7DB87B317BA8AEF90E0E2DB8B
:10091000F89426DC55DCACDCD8DCE9DC90E080E047
:060920000895F894FFCFDA
:040000030000008079
:00000001FF
