:1000000003C003C003C003C003C003C003C003C0D8
:1000800033C0000049C0000047C0000045C0000068
:1000900043C0000041C000003FC000003DC0000060
:1000A0003BC0000039C0000037C0000035C0000070
:1000B00033C0000031C000002FC000002DC0000080
:1000C0002BC0000029C0000027C0000025C0000090
:1000D00023C0000021C000001FC000001DC00000A0
:1000E0001BC0000019C0000000000000000000005C
:1000F0000000000000000000000000000000000000
:10010000000000000000000011241FBECFEFD8E067
:10011000DEBFCDBFF5D30DC4B3CF009709F408956A
:10012000E0EAFFE03197F1F70197F7CF80789B0184
:1001300020583F4FDB01FC01E61BF70BEA0FFB1FCA
:10014000459154914D935D93A217B307A1F708957C
:10015000FC01E07893E090935700E89507B600FC27
:10016000FDCF0895CF93DF939B0120583F4FDB01D4
:10017000FC01E61BF70BEA0FFB1FCD91DD9141E07F
:100180000E0140935700E8951124A217B30781F799
:1001900025E0FC0120935700E89507B600FCFDCF51
:1001A000DF91CF910895CF93DF93CDB7DEB7C058DD
:1001B000D1090FB6F894DEBF0FBECDBFBE016F5F91
:1001C0007F4F90E080E0B2DFFE013196CE018F5785
:1001D0009F4F2FEF3FEF21933193E817F907C9F7AE
:1001E00090E080E0B5DFBE016F5F7F4F90E080E080
:1001F000B9DFC058DF4F0FB6F894DEBF0FBECDBFDA
:10020000DF91CF910895EF92FF920F931F93CF93B9
:10021000DF93CDB7DEB7C058D1090FB6F894DEBF73
:100220000FBECDBF10E000E045E00A3C140774F0BB
:10023000C058DF4F0FB6F894DEBF0FBECDBFDF91C1
:10024000CF911F910F91FF90EF90089530E020E043
:10025000F801EA5CFC4FE20FF31FC9018E7F49E011
:10026000E030F407ECF44591549161E070E06C0FDC
:100270007D1F860F971FFC01518340832E5F3F4FE8
:100280002038310529F77801F6E8FF1AC70160DF49
:10029000BE016F5F7F4FC70165DF00581F4FC4CF9E
:1002A00041E050E04C0F5D1F840F951F4FEF5FEF53
:1002B000E2CF0F931F93CF93DF93CDB7DEB7C05834
:1002C000D1090FB6F894DEBF0FBECDBFFE01319647
:1002D000CE018F579F4F8F012FEF3CEF219331932A
:1002E000E817F907C9F790E080E032DFB80190E045
:1002F00080E038DFC058DF4F0FB6F894DEBF0FBE86
:10030000CDBFDF91CF911F910F910895CF9384B10D
:10031000836084B92998CAEF81E090E0FEDE299AD3
:1003200081E090E0FADE2998C150B1F7CF910895AD
:10033000F0E0E0E0099416C0000079FC8005950F1C
:1003400009021200010100803209040000000000CF
:10035000000012011001FF000008D016530705022B
:10036000000000011124CFEFD8E0CDBFDEBF11E0C7
:10037000A0E0B1E0ECE7FFE702C005900D92AE34DB
:10038000B107D9F721E0AEE4B1E001C01D92AA3770
:10039000B207E1F731C1DC0180E090E041E050EAD2
:1003A000609530E009C02D9182279795879510F0D0
:1003B00084279527305EC8F36F5FA8F38D939D93D4
:1003C0000895C395319BE9F7319B0BC0319B09C060
:1003D000319B07C0319B05C0319B03C0319B01C0DD
:1003E00089C00F92C0915C01DD27CC59DE4F0F9080
:1003F00065E5319B03C00F920F90E6CF0F930F91ED
:100400000F9320E040E10F9106B1067001FB27F940
:100410003F9350E03BE039C0167040642F77012FC6
:100420005F5F1EC0406816B116702F7752501FC014
:10043000406406B12F770670D1F15F5F00C023C022
:10044000406216B12F77167091F15F5F00C025C032
:1004500006701027515012F45D5F0000115027956F
:100460002C3F16B1C8F616700127015027952C3F76
:10047000C8F64227499306B1067010274F731150F2
:1004800027952C3FA8F64695469516B1167079F03B
:100490000127015027952C3F98F66B5A60F3315095
:1004A00006B1B0F600C012E01BBB00271DC03B50D8
:1004B0003195C31BD04012E01BBB0881033CD9F02F
:1004C0000B34C9F020915A011981110F1213EDCF8D
:1004D000093601F10D3211F0013E39F7CAE01BB3C4
:1004E00011FD02C0CA95D9F7009362013F91CBB3C9
:1004F000C1FD67CF0895209162012223B9F31091C5
:100500006001112309F534300AF130936001209322
:100510005B011CC0009160010130B4F40AE5309128
:100520005D0134FD14C000935D01CFE4D1E013C040
:10053000052710E000C0000008B91AC0052710E028
:10054000221F1DC010E021C04AE502C032ED432F3A
:10055000C4E1D0E032E017B11660419A08B117B992
:1005600056E020E865E320FF052708B92795179591
:100570001C3FF0F66695B8F7B1F720FF052708B9DC
:10058000279517951C3FD0F62795179517FF052738
:1005900000001C3F08B9B0F629913A9519F7097F78
:1005A00010916101110FC651D04008B911F010939C
:1005B0005A0112E01BBB026017B1197F402F497F1F
:1005C00054E05A95F1F708B917B948B98FCFF2013D
:1005D000309779F0E230F10511F480E09DE321E0FD
:1005E0000C0120935700E8951124CF0102962C01AD
:1005F00008958CE094E9F3CFA8958091600088611C
:100600008093600010926000399A88EB9BE0E0E9EB
:10061000F1E03197F1F70197D1F739988AE58093A6
:100620005D018FEF80934E0180916C008460809318
:100630006C0080916800826080936800519A712CF0
:10064000312C512C412CC5EDD4E184E696B1967045
:1006500009F084E6815021F41092610110925A0150
:10066000D99BA6C0AEDE82E08BBBA89522E03212F9
:100670000FC0E0E0FAE7E058F10983E0809357000B
:10068000E89507B600FCFDCF3097A9F7512C412C17
:10069000832D803409F090C0F2013297E1158AE78A
:1006A000F80738F485E080935700E89507B600FC1A
:1006B000FDCF312C80916001835087FD2BC090913C
:1006C0005B019D3229F5883019F583EC80934F0149
:1006D0008AE580935D018091650180769091660145
:1006E000882309F4A7C0712C91117EC084E09AE799
:1006F00090935F0180935E0186E090916C0191116F
:1007000005C090916B01981708F4892F80934E01D2
:100710001092600180915D0184FF30C080914E0194
:100720008F3F61F1C82F893008F0C8E0982F9C1BDB
:1007300090934E0190914F0128E8922790934F019A
:10074000882381F0E0915E01F0915F01A0E5B1E0C6
:100750008C2F94919D9331968150D9F7F0935F013E
:10076000E0935E016C2F80E591E015DECC5FCC302C
:1007700019F08FEF80934E01C0935D01C301019684
:100780003C01803921E0920729F4EDEFF9E7E4918B
:10079000EF3FC1F48C7409F488C05998D99B53CFAA
:1007A0008CE1319B8CE18150E1F782E08BBB4BCF38
:1007B000219709F04BCF59CF843009F07ACFCD2B58
:1007C00009F078CF5198599880E091E08752914094
:1007D00009F06DC017B81092680010926C0081E1AA
:1007E00080935700E895A5CD913079F441145104D8
:1007F00011F480E082CF809169018078482E50907A
:100800006A0181E187BFE895F4CF933081F480914C
:10081000670190916801DBDE8091690190916A0126
:10082000D6DE842D8F7729F790E4392E66CF9F731B
:10083000392EDFCF209167011092580191110AC023
:100840001092590128E531E082E030935F01209356
:100850005E0153CF953029F42093610128E531E002
:10086000F4CF963091F480916801813041F48CE1AD
:100870009AE790935F0180935E0182E13ECF8230E0
:1008800009F0B7CF8AE09AE7F4CF983051F0993069
:1008900019F420936301E2CF81E09A30F9F280E00D
:1008A000DDCF23E631E081E0D0CF599A77CF399878
:1008B00092CF282A28766F6C6174696C65207569FF
:1008C0006E74385F74202A29282830783037292020
:1008D0002B2030783230292900282A28766F6C6145
:1008E00074696C652075696E74385F74202A2928D4
:1008F000283078304129202B2030783230292900C7
:1009000085B115B884B18FEF84B98AEF90E005DC2A
:1009100084B114B88AEF90E000DCF89444DC73DC16
:10092000C8DCF4DC8DEF99E713DC02DD90E080E0B9
:060930000895F894FFCFCA
:040000030000008079
:00000001FF
