:1000000003C003C003C003C003C003C003C003C0D8
:1000800027C000003DC000003BC0000039C0000098
:1000900037C0000035C0000033C0000031C0000090
:1000A0002FC000002DC000002BC0000029C00000A0
:1000B00027C0000025C0000023C0000021C00000B0
:1000C0001FC000001DC000001BC0000019C00000C0
:1000D0000000000000000000000000000000000020
:1000E0000000000000000000000000000000000010
:1000F00011241FBECFEFD2E0DEBFCDBFDED3F6C3EB
:10010000BFCF009709F40895E0EAFFE03197F1F7D7
:100110000197F7CF80789B0120583F4FDB01FC010E
:10012000E61BF70BEA0FFB1F459154914D935D932E
:10013000A217B307A1F70895FC01E07893E090932C
:100140005700E89507B600FCFDCF0895CF93DF93E5
:100150009B0120583F4FDB01FC01E61BF70BEA0F28
:10016000FB1FCD91DD9141E00E0140935700E895D2
:100170001124A217B30781F725E0FC012093570053
:10018000E89507B600FCFDCFDF91CF910895CF939E
:10019000DF93CDB7DEB7C058D1090FB6F894DEBFF4
:1001A0000FBECDBFBE016F5F7F4F90E080E0B2DF3A
:1001B000FE013196CE018F579F4F2FEF3FEF2193D6
:1001C0003193E817F907C9F790E080E0B5DFBE0189
:1001D0006F5F7F4F90E080E0B9DFC058DF4F0FB610
:1001E000F894DEBF0FBECDBFDF91CF910895EF929F
:1001F000FF920F931F93CF93DF93CDB7DEB7C05815
:10020000D1090FB6F894DEBF0FBECDBF10E000E0FD
:1002100045E00C39140774F0C058DF4F0FB6F8945E
:10022000DEBF0FBECDBFDF91CF911F910F91FF9029
:10023000EF90089530E020E0F801E25EFC4FE20F1D
:10024000F31FC9018E7F48E0EA3BF407ECF44591C7
:10025000549161E070E06C0F7D1F860F971FFC01C9
:10026000518340832E5F3F4F2038310529F77801B5
:10027000F6ECFF1AC70160DFBE016F5F7F4FC70159
:1002800065DF00581F4FC4CF41E050E04C0F5D1FA9
:10029000840F951F4FEF5FEFE2CF0F931F93CF9324
:1002A000DF93CDB7DEB7C058D1090FB6F894DEBFE3
:1002B0000FBECDBFFE013196CE018F579F4F8F01EC
:1002C0002FEF3CED21933193E817F907C9F790E040
:1002D00080E032DFB80190E080E038DFC058DF4FC7
:1002E0000FB6F894DEBF0FBECDBFDF91CF911F9147
:1002F0000F910895CF9384B1836084B92998CAEF90
:1003000081E090E0FEDE299A81E090E0FADE299813
:10031000C150B1F7CF910895F0E0E0E0099418C022
:10032000000039FA8005948709021200010100805B
:100330003209040000000000000012011001FF005B
:100340000008D01653070502000000010403090449
:1003500011241FBECFEFD2E0CDBFDEBF21E0A0E071
:10036000B1E001C01D92AC32B207E1F742C1A82F43
:10037000B92F80E090E041E050EA609530E009C09C
:100380002D9182279795879510F084279527305EC9
:10039000C8F36F5FA8F30895EADF8D939D930895E6
:1003A000CF93CFB7CF93DF93C3951B9BE9F71B9BED
:1003B0000BC01B9B09C01B9B07C01B9B05C01B9B45
:1003C00003C01B9B01C08FC06F93C0910E01DD273E
:1003D000CA5EDE4F2F9365E51B9B03C02F916F9183
:1003E000E6CF0F931F934F9320E040E15F9303B15B
:1003F000087403FB27F93F9350E03BE039C01874C1
:1004000040642F77012F5F5F1EC0406813B11874DE
:100410002F7752501FC0406403B12F770874D1F179
:100420005F5F00C023C0406213B12F77187491F151
:100430005F5F00C025C008741027515012F45D5F43
:100440000000115027952C3F13B1C8F618740127EE
:10045000015027952C3FC8F64227499303B10874F1
:1004600010274F73115027952C3FA8F646954695B7
:1004700013B1187479F00127015027952C3F98F695
:100480006B5A60F3315003B1B0F600C012E01BBBF1
:1004900000271DC03B503195C31BD04012E01BBB51
:1004A0000881033C29F10B3419F120910C011981C9
:1004B000110F1213EDCF093651F10D3211F0013E3B
:1004C00039F7CAE01BB311FD02C0CA95D9F70093F2
:1004D00014013F915F914F911F910F912F916F9157
:1004E000CBB3C1FD61CFDF91CF91CFBFCF91089545
:1004F00020911401222369F310911201112309F5AF
:1005000034300AF13093120120930D011CC0009188
:1005100012010130B4F40AE530910F0134FD14C02A
:1005200000930F01C1E0D1E013C0052710E000C027
:10053000000005B91AC0052710E0221F1DC010E0F9
:1005400021C04AE502C032ED432FC4E1D0E032E0E1
:1005500014B118642B9A05B114B958E420E865E386
:1005600020FF052705B9279517951C3FF0F66695DE
:10057000B8F7B1F720FF052705B9279517951C3F58
:10058000D0F62795179517FF052700001C3F05B9E2
:10059000B0F629913A9519F7077B10911301110FC5
:1005A000C651D04005B911F010930C0112E01BBBED
:1005B000086014B1177B402F477B54E05A95F1F740
:1005C00005B914B945B985CFF201309779F0E23019
:1005D000F10511F480E09DE121E00C01209357002A
:1005E000E8951124CF0102962C0108958CE094E93E
:1005F000F3CF84B7823031F0EDEFF9E3E491EF3FD0
:1006000009F0E6C088E18093600087E08093600095
:10061000239A2FEF85EA9EE0215080409040E1F739
:1006200000C0000023988AE580930F018FEF80932C
:10063000000180916C00806480936C008091680060
:10064000826080936800219A712C312C512C412CAE
:10065000C5EDD4E184E693B1987409F084E6815045
:1006600021F41092130110920C01D99BA0C098DEC6
:1006700082E08BBBA89522E032120CC0E0E0FAE3E6
:10068000E058F10983E080935700E8953097C1F76F
:10069000512C412C832D803409F08DC0F20132970A
:1006A000E1158AE3F80720F485E080935700E89588
:1006B000312C80911201835087FD2BC090910D0148
:1006C0009D3229F5883019F583EC809301018AE584
:1006D00080930F01809117018076909118018823F3
:1006E00009F4A2C0712C911179C084E09AE390932F
:1006F00011018093100186E090911E01911105C0B7
:1007000090911D01981708F4892F80930001109291
:10071000120180910F0184FF30C0809100018F3F52
:1007200061F1C82F893008F0C8E0982F9C1B909386
:1007300000019091010128E89227909301018823FC
:1007400081F0E0911001F0911101A2E0B1E08C2F55
:1007500094919D9331968150D9F7F0931101E093D4
:1007600010016C2F82E091E017DECC5FCC3019F0E5
:100770008FEF80930001C0930F01C30101963C01EC
:10078000803B24E0920729F4EDEFF9E3E491EF3F99
:10079000C1F48C7409F48FC02998D99B59CF8CE18E
:1007A0001B9B8CE18150E1F782E08BBB51CF2197FD
:1007B00009F051CF5FCF843009F07ACFCD2B09F00B
:1007C00078CF2198299823981092680010926C0095
:1007D00084B78093860014BEA0CDFFCF913079F40A
:1007E0004114510411F480E087CF80911B0180787F
:1007F000482E50901C0181E187BFE895F4CF9330DB
:1008000081F48091190190911A01DEDE80911B0123
:1008100090911C01D9DE842D8F7729F790E4392E31
:100820006BCF9F73392EDFCF2091190110920A01EF
:1008300091110AC010920B012AE031E082E030935E
:1008400011012093100158CF953029F42093130102
:100850002AE031E0F4CF9630F1F480911A01813032
:1008600041F48CE19AE3909311018093100182E1AD
:1008700043CF823019F48AE09AE3F5CF833009F050
:10088000B2CF2111B0CF8EE29AE390931101809301
:10089000100184E031CF983051F0993019F4209351
:1008A0001501D6CF81E09A3099F280E0D1CF25E1D1
:1008B00031E081E0C4CF299A70CF85B115B884B1F9
:1008C0008FEF84B98AEF90E01CDC84B114B88AEF12
:1008D00090E017DCF8945BDC8ADCDFDC0BDD8DEF6D
:1008E00099E32ADC19DD90E080E00895F894FFCFC9
:040000030000008079
:00000001FF
